{
  "contractName": "Contributor",
  "abi": [
    {
      "constant": false,
      "inputs": [],
      "name": "renounceOwnership",
      "outputs": [],
      "payable": false,
      "stateMutability": "nonpayable",
      "type": "function"
    },
    {
      "constant": true,
      "inputs": [],
      "name": "owner",
      "outputs": [
        {
          "name": "",
          "type": "address"
        }
      ],
      "payable": false,
      "stateMutability": "view",
      "type": "function"
    },
    {
      "constant": false,
      "inputs": [
        {
          "name": "_newOwner",
          "type": "address"
        }
      ],
      "name": "transferOwnership",
      "outputs": [],
      "payable": false,
      "stateMutability": "nonpayable",
      "type": "function"
    },
    {
      "anonymous": false,
      "inputs": [
        {
          "indexed": false,
          "name": "userId",
          "type": "string"
        },
        {
          "indexed": true,
          "name": "contentHash",
          "type": "bytes32"
        }
      ],
      "name": "ContributionAdded",
      "type": "event"
    },
    {
      "anonymous": false,
      "inputs": [
        {
          "indexed": true,
          "name": "contentHash",
          "type": "bytes32"
        },
        {
          "indexed": false,
          "name": "status",
          "type": "uint8"
        }
      ],
      "name": "StatusUpdated",
      "type": "event"
    },
    {
      "anonymous": false,
      "inputs": [
        {
          "indexed": true,
          "name": "previousOwner",
          "type": "address"
        }
      ],
      "name": "OwnershipRenounced",
      "type": "event"
    },
    {
      "anonymous": false,
      "inputs": [
        {
          "indexed": true,
          "name": "previousOwner",
          "type": "address"
        },
        {
          "indexed": true,
          "name": "newOwner",
          "type": "address"
        }
      ],
      "name": "OwnershipTransferred",
      "type": "event"
    },
    {
      "constant": false,
      "inputs": [
        {
          "name": "userId",
          "type": "string"
        },
        {
          "name": "contentHash",
          "type": "bytes32"
        }
      ],
      "name": "addContribution",
      "outputs": [],
      "payable": false,
      "stateMutability": "nonpayable",
      "type": "function"
    },
    {
      "constant": false,
      "inputs": [
        {
          "name": "contentHash",
          "type": "bytes32"
        },
        {
          "name": "status",
          "type": "uint8"
        }
      ],
      "name": "changeStatus",
      "outputs": [],
      "payable": false,
      "stateMutability": "nonpayable",
      "type": "function"
    },
    {
      "constant": true,
      "inputs": [
        {
          "name": "userId",
          "type": "string"
        }
      ],
      "name": "getAllContentForUser",
      "outputs": [
        {
          "name": "contentHashes",
          "type": "bytes32[]"
        }
      ],
      "payable": false,
      "stateMutability": "view",
      "type": "function"
    },
    {
      "constant": true,
      "inputs": [
        {
          "name": "contentHash",
          "type": "bytes32"
        }
      ],
      "name": "getContributionInfo",
      "outputs": [
        {
          "name": "initiator",
          "type": "address"
        },
        {
          "name": "userId",
          "type": "string"
        },
        {
          "name": "status",
          "type": "uint8"
        },
        {
          "name": "lastUpdated",
          "type": "uint256"
        }
      ],
      "payable": false,
      "stateMutability": "view",
      "type": "function"
    }
  ],
  "bytecode": "0x6080604052336000806101000a81548173ffffffffffffffffffffffffffffffffffffffff021916908373ffffffffffffffffffffffffffffffffffffffff160217905550610f3b806100536000396000f300608060405260043610610083576000357c0100000000000000000000000000000000000000000000000000000000900463ffffffff1680633787e708146100885780635c56f6e6146100d1578063715018a6146101615780638da5cb5b146101785780639d524e4e146101cf578063af5a144c146102c8578063f2fde38b14610306575b600080fd5b34801561009457600080fd5b506100cf6004803603810190808035906020019082018035906020019190919293919293908035600019169060200190929190505050610349565b005b3480156100dd57600080fd5b5061010a60048036038101908080359060200190820180359060200191909192939192939050505061079d565b6040518080602001828103825283818151815260200191508051906020019060200280838360005b8381101561014d578082015181840152602081019050610132565b505050509050019250505060405180910390f35b34801561016d57600080fd5b5061017661089d565b005b34801561018457600080fd5b5061018d61099f565b604051808273ffffffffffffffffffffffffffffffffffffffff1673ffffffffffffffffffffffffffffffffffffffff16815260200191505060405180910390f35b3480156101db57600080fd5b506101fe60048036038101908080356000191690602001909291905050506109c4565b604051808573ffffffffffffffffffffffffffffffffffffffff1673ffffffffffffffffffffffffffffffffffffffff1681526020018060200184600281111561024457fe5b60ff168152602001838152602001828103825285818151815260200191508051906020019080838360005b8381101561028a57808201518184015260208101905061026f565b50505050905090810190601f1680156102b75780820380516001836020036101000a031916815260200191505b509550505050505060405180910390f35b3480156102d457600080fd5b506103046004803603810190808035600019169060200190929190803560ff169060200190929190505050610b1b565b005b34801561031257600080fd5b50610347600480360381019080803573ffffffffffffffffffffffffffffffffffffffff169060200190929190505050610d09565b005b600073ffffffffffffffffffffffffffffffffffffffff1660026000836000191660001916815260200190815260200160002060000160009054906101000a900473ffffffffffffffffffffffffffffffffffffffff1673ffffffffffffffffffffffffffffffffffffffff1614151561042b576040517f08c379a000000000000000000000000000000000000000000000000000000000815260040180806020018281038252601b8152602001807f436f6e74656e74206861736820616c726561647920657869737473000000000081525060200191505060405180910390fd5b6000838390501115156104a6576040517f08c379a00000000000000000000000000000000000000000000000000000000081526004018080602001828103825260188152602001807f506c6561736520706173732076616c696420757365724964000000000000000081525060200191505060405180910390fd5b60006001026000191681600019161415151561052a576040517f08c379a000000000000000000000000000000000000000000000000000000000815260040180806020018281038252601e8152602001807f506c6561736520706173732076616c696420636f6e74656e742068617368000081525060200191505060405180910390fd5b60a0604051908101604052803373ffffffffffffffffffffffffffffffffffffffff1681526020018260001916815260200184848080601f0160208091040260200160405190810160405280939291908181526020018383808284378201915050505050508152602001600060028111156105a157fe5b81526020014281525060026000836000191660001916815260200190815260200160002060008201518160000160006101000a81548173ffffffffffffffffffffffffffffffffffffffff021916908373ffffffffffffffffffffffffffffffffffffffff160217905550602082015181600101906000191690556040820151816002019080519060200190610638929190610e6a565b5060608201518160030160006101000a81548160ff0219169083600281111561065d57fe5b021790555060808201518160040155905050600160008484604051602001808383808284378201915050925050506040516020818303038152906040526040518082805190602001908083835b6020831015156106cf57805182526020820191506020810190506020830392506106aa565b6001836020036101000a03801982511681845116808217855250505050505090500191505060405180910390206000191660001916815260200190815260200160002081908060018154018082558091505090600182039060005260206000200160009091929091909150906000191690555080600019167fa24a06f64a79d7df031b62e4edc999ab0cac6c9685f4b5f83590e38b571aa8798484604051808060200182810382528484828181526020019250808284378201915050935050505060405180910390a2505050565b6060600160008484604051602001808383808284378201915050925050506040516020818303038152906040526040518082805190602001908083835b6020831015156107ff57805182526020820191506020810190506020830392506107da565b6001836020036101000a03801982511681845116808217855250505050505090500191505060405180910390206000191660001916815260200190815260200160002080548060200260200160405190810160405280929190818152602001828054801561089057602002820191906000526020600020905b81546000191681526020019060010190808311610878575b5050505050905092915050565b6000809054906101000a900473ffffffffffffffffffffffffffffffffffffffff1673ffffffffffffffffffffffffffffffffffffffff163373ffffffffffffffffffffffffffffffffffffffff161415156108f857600080fd5b6000809054906101000a900473ffffffffffffffffffffffffffffffffffffffff1673ffffffffffffffffffffffffffffffffffffffff167ff8df31144d9c2f0f6b59d69b8b98abd5459d07f2742c4df920b25aae33c6482060405160405180910390a260008060006101000a81548173ffffffffffffffffffffffffffffffffffffffff021916908373ffffffffffffffffffffffffffffffffffffffff160217905550565b6000809054906101000a900473ffffffffffffffffffffffffffffffffffffffff1681565b6000606060008060026000866000191660001916815260200190815260200160002060000160009054906101000a900473ffffffffffffffffffffffffffffffffffffffff1693506002600086600019166000191681526020019081526020016000206002018054600181600116156101000203166002900480601f016020809104026020016040519081016040528092919081815260200182805460018160011615610100020316600290048015610abe5780601f10610a9357610100808354040283529160200191610abe565b820191906000526020600020905b815481529060010190602001808311610aa157829003601f168201915b5050505050925060026000866000191660001916815260200190815260200160002060030160009054906101000a900460ff1691506002600086600019166000191681526020019081526020016000206004015490509193509193565b6000809054906101000a900473ffffffffffffffffffffffffffffffffffffffff1673ffffffffffffffffffffffffffffffffffffffff163373ffffffffffffffffffffffffffffffffffffffff16141515610b7657600080fd5b600073ffffffffffffffffffffffffffffffffffffffff1660026000846000191660001916815260200190815260200160002060000160009054906101000a900473ffffffffffffffffffffffffffffffffffffffff1673ffffffffffffffffffffffffffffffffffffffff1614151515610c59576040517f08c379a000000000000000000000000000000000000000000000000000000000815260040180806020018281038252601c8152602001807f436f6e74656e74206861736820646f6573206e6f74206578697374730000000081525060200191505060405180910390fd5b8060026000846000191660001916815260200190815260200160002060030160006101000a81548160ff02191690836002811115610c9357fe5b0217905550426002600084600019166000191681526020019081526020016000206004018190555081600019167f8ed894b6f384ca9c829b9aa5b056bc9106a90845a15616607e975d4ad488ee678260405180826002811115610cf257fe5b60ff16815260200191505060405180910390a25050565b6000809054906101000a900473ffffffffffffffffffffffffffffffffffffffff1673ffffffffffffffffffffffffffffffffffffffff163373ffffffffffffffffffffffffffffffffffffffff16141515610d6457600080fd5b610d6d81610d70565b50565b600073ffffffffffffffffffffffffffffffffffffffff168173ffffffffffffffffffffffffffffffffffffffff1614151515610dac57600080fd5b8073ffffffffffffffffffffffffffffffffffffffff166000809054906101000a900473ffffffffffffffffffffffffffffffffffffffff1673ffffffffffffffffffffffffffffffffffffffff167f8be0079c531659141344cd1fd0a4f28419497f9722a3daafe3b4186f6b6457e060405160405180910390a3806000806101000a81548173ffffffffffffffffffffffffffffffffffffffff021916908373ffffffffffffffffffffffffffffffffffffffff16021790555050565b828054600181600116156101000203166002900490600052602060002090601f016020900481019282601f10610eab57805160ff1916838001178555610ed9565b82800160010185558215610ed9579182015b82811115610ed8578251825591602001919060010190610ebd565b5b509050610ee69190610eea565b5090565b610f0c91905b80821115610f08576000816000905550600101610ef0565b5090565b905600a165627a7a723058204b545efc83a5d23e839fcfda1d59246d4fbfc9952f7d61570d414a9e758128b30029",
  "source": "pragma solidity 0.4.24;\n\nimport \"openzeppelin-solidity/contracts/ownership/Ownable.sol\";\n\n\n/** \n* @author Sameep Singhania\n*/\ncontract Contributor is Ownable {\n    enum Status {PENDING, ACCEPTED, REJECTED}\n\n    struct Contribution{\n        address initiator;\n        bytes32 contentHash;\n        string userId;\n        Status status;\n        uint256 lastUpdated;\n    }\n\n    mapping(bytes32=>bytes32[]) userVscontentHash;\n\n    mapping(bytes32=>Contribution)contentHashVsContribution;\n\n    event ContributionAdded(string userId, bytes32 indexed contentHash);\n\n    event StatusUpdated(bytes32 indexed contentHash, Status status);\n\n    /** \n    * @dev Function to add new contribution\n    * \n    */\n    function addContribution(string userId, bytes32 contentHash)external {\n\n        require(\n            contentHashVsContribution[contentHash].initiator == address(0), \n            \"Content hash already exists\"\n        );\n        require(bytes(userId).length>0, \"Please pass valid userId\");\n        require(contentHash != bytes32(0), \"Please pass valid content hash\");\n\n        contentHashVsContribution[contentHash] = Contribution({\n            initiator:msg.sender,\n            contentHash:contentHash,\n            userId:userId,\n            status:Status.PENDING,\n            lastUpdated:now\n        });\n\n        userVscontentHash[\n            keccak256(\n                abi.encodePacked(userId)\n            )\n        ].push(\n            contentHash\n        );\n\n        emit ContributionAdded(userId, contentHash);\n    }\n\n    /** \n    * @dev Change status of the contribution by contentHash\n    * Only owner of the contract can do that\n    */\n    function changeStatus(\n        bytes32 contentHash, \n        Status status\n    )\n        external \n        onlyOwner\n    {\n        require(\n            contentHashVsContribution[contentHash].initiator != address(0), \n            \"Content hash does not exists\"\n        );\n\n        contentHashVsContribution[contentHash].status = status;\n        contentHashVsContribution[contentHash].lastUpdated = now;\n\n\n        emit StatusUpdated(contentHash, status);\n    }\n\n\n    /** \n    * @dev Get all contribution content hash for user\n    */\n    function getAllContentForUser(\n        string userId\n    )\n        external \n        view \n        returns(bytes32[]contentHashes) \n    {\n        contentHashes = userVscontentHash[\n            keccak256(abi.encodePacked(userId))\n        ]; \n    }\n\n    /**\n    * @dev Returns Contribution info for the content hash, if it exists otherwise defaults values will be returned\n    */\n    function getContributionInfo(\n        bytes32 contentHash\n    )\n        external \n        view \n        returns(\n            address initiator, \n            string userId, \n            Status status, \n            uint256 lastUpdated\n        )\n    {\n        initiator = contentHashVsContribution[contentHash].initiator;\n        userId = contentHashVsContribution[contentHash].userId;\n        status = contentHashVsContribution[contentHash].status;\n        lastUpdated = contentHashVsContribution[contentHash].lastUpdated;\n    }\n\n}\n",
  "sourcePath": "/home/sameep/freelancing-projects/picnspan/contracts/Contributor.sol",
  "compiler": {
    "name": "solc",
    "version": "0.4.24+commit.e67f0147.Emscripten.clang"
  },
  "schemaVersion": "2.0.1",
  "updatedAt": "2018-10-20T16:32:51.814Z"
}