{
  "contractName": "LicenseManager",
  "abi": [
    {
      "constant": false,
      "inputs": [],
      "name": "renounceOwnership",
      "outputs": [],
      "payable": false,
      "stateMutability": "nonpayable",
      "type": "function"
    },
    {
      "constant": true,
      "inputs": [],
      "name": "owner",
      "outputs": [
        {
          "name": "",
          "type": "address"
        }
      ],
      "payable": false,
      "stateMutability": "view",
      "type": "function"
    },
    {
      "constant": false,
      "inputs": [
        {
          "name": "_newOwner",
          "type": "address"
        }
      ],
      "name": "transferOwnership",
      "outputs": [],
      "payable": false,
      "stateMutability": "nonpayable",
      "type": "function"
    },
    {
      "anonymous": false,
      "inputs": [
        {
          "indexed": false,
          "name": "customerId",
          "type": "string"
        },
        {
          "indexed": true,
          "name": "skuCode",
          "type": "uint256"
        },
        {
          "indexed": false,
          "name": "licenseId",
          "type": "uint256"
        }
      ],
      "name": "LicenseAdded",
      "type": "event"
    },
    {
      "anonymous": false,
      "inputs": [
        {
          "indexed": false,
          "name": "customerId",
          "type": "string"
        },
        {
          "indexed": true,
          "name": "licenseId",
          "type": "uint256"
        },
        {
          "indexed": false,
          "name": "expiringDate",
          "type": "uint256"
        }
      ],
      "name": "LicenseRenewed",
      "type": "event"
    },
    {
      "anonymous": false,
      "inputs": [
        {
          "indexed": false,
          "name": "customerId",
          "type": "string"
        },
        {
          "indexed": true,
          "name": "licenseId",
          "type": "uint256"
        }
      ],
      "name": "LicenseExpired",
      "type": "event"
    },
    {
      "anonymous": false,
      "inputs": [
        {
          "indexed": false,
          "name": "customerId",
          "type": "string"
        },
        {
          "indexed": true,
          "name": "licenseId",
          "type": "uint256"
        }
      ],
      "name": "LicenseEnded",
      "type": "event"
    },
    {
      "anonymous": false,
      "inputs": [
        {
          "indexed": false,
          "name": "customerId",
          "type": "string"
        },
        {
          "indexed": true,
          "name": "licenseId",
          "type": "uint256"
        }
      ],
      "name": "LicenseTerminated",
      "type": "event"
    },
    {
      "anonymous": false,
      "inputs": [
        {
          "indexed": true,
          "name": "previousOwner",
          "type": "address"
        }
      ],
      "name": "OwnershipRenounced",
      "type": "event"
    },
    {
      "anonymous": false,
      "inputs": [
        {
          "indexed": true,
          "name": "previousOwner",
          "type": "address"
        },
        {
          "indexed": true,
          "name": "newOwner",
          "type": "address"
        }
      ],
      "name": "OwnershipTransferred",
      "type": "event"
    },
    {
      "constant": false,
      "inputs": [
        {
          "name": "customerId",
          "type": "string"
        },
        {
          "name": "licenseType",
          "type": "uint8"
        },
        {
          "name": "expiringDate",
          "type": "uint256"
        },
        {
          "name": "skuCode",
          "type": "uint256"
        }
      ],
      "name": "newLicense",
      "outputs": [
        {
          "name": "id",
          "type": "uint256"
        }
      ],
      "payable": false,
      "stateMutability": "nonpayable",
      "type": "function"
    },
    {
      "constant": false,
      "inputs": [
        {
          "name": "customerId",
          "type": "string"
        },
        {
          "name": "licenseId",
          "type": "uint256"
        },
        {
          "name": "expiringDate",
          "type": "uint256"
        }
      ],
      "name": "renewLicense",
      "outputs": [],
      "payable": false,
      "stateMutability": "nonpayable",
      "type": "function"
    },
    {
      "constant": false,
      "inputs": [
        {
          "name": "customerId",
          "type": "string"
        },
        {
          "name": "licenseId",
          "type": "uint256"
        }
      ],
      "name": "checkAndMarkExpire",
      "outputs": [
        {
          "name": "expired",
          "type": "bool"
        }
      ],
      "payable": false,
      "stateMutability": "nonpayable",
      "type": "function"
    },
    {
      "constant": false,
      "inputs": [
        {
          "name": "customerId",
          "type": "string"
        },
        {
          "name": "licenseId",
          "type": "uint256"
        }
      ],
      "name": "endLicense",
      "outputs": [],
      "payable": false,
      "stateMutability": "nonpayable",
      "type": "function"
    },
    {
      "constant": false,
      "inputs": [
        {
          "name": "customerId",
          "type": "string"
        },
        {
          "name": "licenseId",
          "type": "uint256"
        }
      ],
      "name": "terminateLicense",
      "outputs": [],
      "payable": false,
      "stateMutability": "nonpayable",
      "type": "function"
    },
    {
      "constant": false,
      "inputs": [
        {
          "name": "customerId",
          "type": "string"
        },
        {
          "name": "licenseId",
          "type": "uint256"
        }
      ],
      "name": "getLicenseStatus",
      "outputs": [
        {
          "name": "status",
          "type": "uint8"
        }
      ],
      "payable": false,
      "stateMutability": "nonpayable",
      "type": "function"
    },
    {
      "constant": false,
      "inputs": [
        {
          "name": "customerId",
          "type": "string"
        },
        {
          "name": "licenseId",
          "type": "uint256"
        }
      ],
      "name": "getLicense",
      "outputs": [
        {
          "name": "licenseType",
          "type": "uint8"
        },
        {
          "name": "status",
          "type": "uint8"
        },
        {
          "name": "createdDate",
          "type": "uint256"
        },
        {
          "name": "renewedDate",
          "type": "uint256"
        },
        {
          "name": "expiringDate",
          "type": "uint256"
        },
        {
          "name": "skuCode",
          "type": "uint256"
        }
      ],
      "payable": false,
      "stateMutability": "nonpayable",
      "type": "function"
    },
    {
      "constant": false,
      "inputs": [
        {
          "name": "customerId",
          "type": "string"
        },
        {
          "name": "licenseId",
          "type": "uint256"
        }
      ],
      "name": "checkLicenseExists",
      "outputs": [
        {
          "name": "exists",
          "type": "bool"
        }
      ],
      "payable": false,
      "stateMutability": "nonpayable",
      "type": "function"
    }
  ],
  "bytecode": "0x6080604052336000806101000a81548173ffffffffffffffffffffffffffffffffffffffff021916908373ffffffffffffffffffffffffffffffffffffffff1602179055506123d6806100536000396000f3006080604052600436106100af576000357c0100000000000000000000000000000000000000000000000000000000900463ffffffff168063345abef0146100b457806334cc2acd14610111578063422311381461016e57806356e74165146101d5578063715018a61461021a5780638da5cb5b146102315780639d70fe8b14610288578063aea7e685146102f8578063bc8397a514610390578063d2655ed8146103df578063f2fde38b14610424575b600080fd5b3480156100c057600080fd5b506100f760048036038101908080359060200190820180359060200191909192939192939080359060200190929190505050610467565b604051808215151515815260200191505060405180910390f35b34801561011d57600080fd5b50610154600480360381019080803590602001908201803590602001919091929391929390803590602001909291905050506108a0565b604051808215151515815260200191505060405180910390f35b34801561017a57600080fd5b506101b160048036038101908080359060200190820180359060200191909192939192939080359060200190929190505050610975565b604051808260038111156101c157fe5b60ff16815260200191505060405180910390f35b3480156101e157600080fd5b5061021860048036038101908080359060200190820180359060200191909192939192939080359060200190929190505050610c35565b005b34801561022657600080fd5b5061022f6110ac565b005b34801561023d57600080fd5b506102466111ae565b604051808273ffffffffffffffffffffffffffffffffffffffff1673ffffffffffffffffffffffffffffffffffffffff16815260200191505060405180910390f35b34801561029457600080fd5b506102e2600480360381019080803590602001908201803590602001919091929391929390803560ff16906020019092919080359060200190929190803590602001909291905050506111d3565b6040518082815260200191505060405180910390f35b34801561030457600080fd5b5061033b600480360381019080803590602001908201803590602001919091929391929390803590602001909291905050506115b6565b6040518087600381111561034b57fe5b60ff16815260200186600381111561035f57fe5b60ff168152602001858152602001848152602001838152602001828152602001965050505050505060405180910390f35b34801561039c57600080fd5b506103dd60048036038101908080359060200190820180359060200191909192939192939080359060200190929190803590602001909291905050506118b8565b005b3480156103eb57600080fd5b5061042260048036038101908080359060200190820180359060200191909192939192939080359060200190929190505050611d84565b005b34801561043057600080fd5b50610465600480360381019080803573ffffffffffffffffffffffffffffffffffffffff1690602001909291905050506121a4565b005b60008060008060009054906101000a900473ffffffffffffffffffffffffffffffffffffffff1673ffffffffffffffffffffffffffffffffffffffff163373ffffffffffffffffffffffffffffffffffffffff161415156104c757600080fd5b85858080601f016020809104026020016040519081016040528093929190818152602001838380828437820191505050505050846000826040516020018082805190602001908083835b6020831015156105365780518252602082019150602081019050602083039250610511565b6001836020036101000a0380198251168184511680821785525050505050509050019150506040516020818303038152906040526040518082805190602001908083835b60208310151561059f578051825260208201915060208101905060208303925061057a565b6001836020036101000a038019825116818451168082178552505050505050905001915050604051809103902090506000600160008360001916600019168152602001908152602001600020838154811015156105f857fe5b9060005260206000209060060201600201541115156106a5576040517f08c379a00000000000000000000000000000000000000000000000000000000081526004018080602001828103825260288152602001807f4c6963656e736520666f722074686520637573746f6d657220646f6573206e6f81526020017f742065786973747300000000000000000000000000000000000000000000000081525060400191505060405180910390fd5b600095508888604051602001808383808284378201915050925050506040516020818303038152906040526040518082805190602001908083835b60208310151561070557805182526020820191506020810190506020830392506106e0565b6001836020036101000a038019825116818451168082178552505050505050905001915050604051809103902094506001600086600019166000191681526020019081526020016000208781548110151561075c57fe5b906000526020600020906006020193506000600381111561077957fe5b8460010160019054906101000a900460ff16600381111561079657fe5b14151561080b576040517f08c379a00000000000000000000000000000000000000000000000000000000081526004018080602001828103825260158152602001807f4c6963656e7365206973206e6f7420616374697665000000000000000000000081525060200191505060405180910390fd5b42846004015410156108945760018460010160016101000a81548160ff0219169083600381111561083857fe5b021790555060019550867fa749a1f4011e2662ae57db866136c12212ea9941c59a5042694985187108346b8a8a604051808060200182810382528484828181526020019250808284378201915050935050505060405180910390a25b50505050509392505050565b6000808484604051602001808383808284378201915050925050506040516020818303038152906040526040518082805190602001908083835b6020831015156108ff57805182526020820191506020810190506020830392506108da565b6001836020036101000a0380198251168184511680821785525050505050509050019150506040518091039020905060006001600083600019166000191681526020019081526020016000208481548110151561095857fe5b906000526020600020906006020160020154119150509392505050565b60008084848080601f016020809104026020016040519081016040528093929190818152602001838380828437820191505050505050836000826040516020018082805190602001908083835b6020831015156109e757805182526020820191506020810190506020830392506109c2565b6001836020036101000a0380198251168184511680821785525050505050509050019150506040516020818303038152906040526040518082805190602001908083835b602083101515610a505780518252602082019150602081019050602083039250610a2b565b6001836020036101000a03801982511681845116808217855250505050505090500191505060405180910390209050600060016000836000191660001916815260200190815260200160002083815481101515610aa957fe5b906000526020600020906006020160020154111515610b56576040517f08c379a00000000000000000000000000000000000000000000000000000000081526004018080602001828103825260288152602001807f4c6963656e736520666f722074686520637573746f6d657220646f6573206e6f81526020017f742065786973747300000000000000000000000000000000000000000000000081525060400191505060405180910390fd5b8787604051602001808383808284378201915050925050506040516020818303038152906040526040518082805190602001908083835b602083101515610bb25780518252602082019150602081019050602083039250610b8d565b6001836020036101000a0380198251168184511680821785525050505050509050019150506040518091039020935060016000856000191660001916815260200190815260200160002086815481101515610c0957fe5b906000526020600020906006020160010160019054906101000a900460ff169450505050509392505050565b6000806000809054906101000a900473ffffffffffffffffffffffffffffffffffffffff1673ffffffffffffffffffffffffffffffffffffffff163373ffffffffffffffffffffffffffffffffffffffff16141515610c9357600080fd5b84848080601f016020809104026020016040519081016040528093929190818152602001838380828437820191505050505050836000826040516020018082805190602001908083835b602083101515610d025780518252602082019150602081019050602083039250610cdd565b6001836020036101000a0380198251168184511680821785525050505050509050019150506040516020818303038152906040526040518082805190602001908083835b602083101515610d6b5780518252602082019150602081019050602083039250610d46565b6001836020036101000a03801982511681845116808217855250505050505090500191505060405180910390209050600060016000836000191660001916815260200190815260200160002083815481101515610dc457fe5b906000526020600020906006020160020154111515610e71576040517f08c379a00000000000000000000000000000000000000000000000000000000081526004018080602001828103825260288152602001807f4c6963656e736520666f722074686520637573746f6d657220646f6573206e6f81526020017f742065786973747300000000000000000000000000000000000000000000000081525060400191505060405180910390fd5b8787604051602001808383808284378201915050925050506040516020818303038152906040526040518082805190602001908083835b602083101515610ecd5780518252602082019150602081019050602083039250610ea8565b6001836020036101000a0380198251168184511680821785525050505050509050019150506040518091039020945060016000866000191660001916815260200190815260200160002086815481101515610f2457fe5b9060005260206000209060060201935060026003811115610f4157fe5b8460010160019054906101000a900460ff166003811115610f5e57fe5b1480610f905750600380811115610f7157fe5b8460010160019054906101000a900460ff166003811115610f8e57fe5b145b151561102a576040517f08c379a00000000000000000000000000000000000000000000000000000000081526004018080602001828103825260238152602001807f4c6963656e736520616c726561647920656e646564206f72207465726d696e6181526020017f746564000000000000000000000000000000000000000000000000000000000081525060400191505060405180910390fd5b60038460010160016101000a81548160ff0219169083600381111561104b57fe5b0217905550857f9e596be9d7beabf2fbcf99f48e27a13c50041dadf6f2a45f628f9a05c68b1e9e8989604051808060200182810382528484828181526020019250808284378201915050935050505060405180910390a25050505050505050565b6000809054906101000a900473ffffffffffffffffffffffffffffffffffffffff1673ffffffffffffffffffffffffffffffffffffffff163373ffffffffffffffffffffffffffffffffffffffff1614151561110757600080fd5b6000809054906101000a900473ffffffffffffffffffffffffffffffffffffffff1673ffffffffffffffffffffffffffffffffffffffff167ff8df31144d9c2f0f6b59d69b8b98abd5459d07f2742c4df920b25aae33c6482060405160405180910390a260008060006101000a81548173ffffffffffffffffffffffffffffffffffffffff021916908373ffffffffffffffffffffffffffffffffffffffff160217905550565b6000809054906101000a900473ffffffffffffffffffffffffffffffffffffffff1681565b6000806000809054906101000a900473ffffffffffffffffffffffffffffffffffffffff1673ffffffffffffffffffffffffffffffffffffffff163373ffffffffffffffffffffffffffffffffffffffff1614151561123157600080fd5b6000878790501115156112ac576040517f08c379a000000000000000000000000000000000000000000000000000000000815260040180806020018281038252601f8152602001807f506c656173652070726f766964652076616c696420637573746f6d657249640081525060200191505060405180910390fd5b4284111515611349576040517f08c379a00000000000000000000000000000000000000000000000000000000081526004018080602001828103825260228152602001807f506c656173652070726f766964652076616c6964206578706972696e6720646181526020017f746500000000000000000000000000000000000000000000000000000000000081525060400191505060405180910390fd5b8686604051602001808383808284378201915050925050506040516020818303038152906040526040518082805190602001908083835b6020831015156113a55780518252602082019150602081019050602083039250611380565b6001836020036101000a0380198251168184511680821785525050505050509050019150506040518091039020905060016000826000191660001916815260200190815260200160002080549050915060016000826000191660001916815260200190815260200160002060e06040519081016040528089898080601f016020809104026020016040519081016040528093929190818152602001838380828437820191505050505050815260200187600381111561146057fe5b81526020016000600381111561147257fe5b8152602001428152602001428152602001868152602001858152509080600181540180825580915050906001820390600052602060002090600602016000909192909190915060008201518160000190805190602001906114d4929190612305565b5060208201518160010160006101000a81548160ff021916908360038111156114f957fe5b021790555060408201518160010160016101000a81548160ff0219169083600381111561152257fe5b0217905550606082015181600201556080820151816003015560a0820151816004015560c08201518160050155505050827ffe7ec6494cac15c1c8df943627af05e7e7d42b459212510e58f39382ff24da5388888560405180806020018381526020018281038252858582818152602001925080828437820191505094505050505060405180910390a25095945050505050565b6000806000806000806000808a8a8080601f016020809104026020016040519081016040528093929190818152602001838380828437820191505050505050896000826040516020018082805190602001908083835b602083101515611631578051825260208201915060208101905060208303925061160c565b6001836020036101000a0380198251168184511680821785525050505050509050019150506040516020818303038152906040526040518082805190602001908083835b60208310151561169a5780518252602082019150602081019050602083039250611675565b6001836020036101000a038019825116818451168082178552505050505050905001915050604051809103902090506000600160008360001916600019168152602001908152602001600020838154811015156116f357fe5b9060005260206000209060060201600201541115156117a0576040517f08c379a00000000000000000000000000000000000000000000000000000000081526004018080602001828103825260288152602001807f4c6963656e736520666f722074686520637573746f6d657220646f6573206e6f81526020017f742065786973747300000000000000000000000000000000000000000000000081525060400191505060405180910390fd5b8d8d604051602001808383808284378201915050925050506040516020818303038152906040526040518082805190602001908083835b6020831015156117fc57805182526020820191506020810190506020830392506117d7565b6001836020036101000a038019825116818451168082178552505050505050905001915050604051809103902094506001600086600019166000191681526020019081526020016000208c81548110151561185357fe5b906000526020600020906006020193508360010160009054906101000a900460ff169a508360010160019054906101000a900460ff16995083600201549850836003015497508360040154965083600501549550505050505093975093979195509350565b6000806000809054906101000a900473ffffffffffffffffffffffffffffffffffffffff1673ffffffffffffffffffffffffffffffffffffffff163373ffffffffffffffffffffffffffffffffffffffff1614151561191657600080fd5b85858080601f016020809104026020016040519081016040528093929190818152602001838380828437820191505050505050846000826040516020018082805190602001908083835b6020831015156119855780518252602082019150602081019050602083039250611960565b6001836020036101000a0380198251168184511680821785525050505050509050019150506040516020818303038152906040526040518082805190602001908083835b6020831015156119ee57805182526020820191506020810190506020830392506119c9565b6001836020036101000a03801982511681845116808217855250505050505090500191505060405180910390209050600060016000836000191660001916815260200190815260200160002083815481101515611a4757fe5b906000526020600020906006020160020154111515611af4576040517f08c379a00000000000000000000000000000000000000000000000000000000081526004018080602001828103825260288152602001807f4c6963656e736520666f722074686520637573746f6d657220646f6573206e6f81526020017f742065786973747300000000000000000000000000000000000000000000000081525060400191505060405180910390fd5b8888604051602001808383808284378201915050925050506040516020818303038152906040526040518082805190602001908083835b602083101515611b505780518252602082019150602081019050602083039250611b2b565b6001836020036101000a0380198251168184511680821785525050505050509050019150506040518091039020945060016000866000191660001916815260200190815260200160002087815481101515611ba757fe5b90600052602060002090600602019350836004015486111515611c7e576040517f08c379a000000000000000000000000000000000000000000000000000000000815260040180806020018281038252604e8152602001807f4e6577206578706972696e6720646174652073686f756c64206265206772656181526020017f746572207468656e2063757272656e74206578706972696e672064617465206681526020017f6f7220746865206c6963656e736500000000000000000000000000000000000081525060600191505060405180910390fd5b60026003811115611c8b57fe5b8460010160019054906101000a900460ff166003811115611ca857fe5b141580611cdc5750600380811115611cbc57fe5b8460010160019054906101000a900460ff166003811115611cd957fe5b14155b1515611ce757600080fd5b85846004018190555060008460010160016101000a81548160ff02191690836003811115611d1157fe5b0217905550428460030181905550867f5c431da01e92e0e84b2a32af7d7296990f285e0b1e2bdfb1c4f7f0a33c9697448a8a8960405180806020018381526020018281038252858582818152602001925080828437820191505094505050505060405180910390a2505050505050505050565b6000806000809054906101000a900473ffffffffffffffffffffffffffffffffffffffff1673ffffffffffffffffffffffffffffffffffffffff163373ffffffffffffffffffffffffffffffffffffffff16141515611de257600080fd5b84848080601f016020809104026020016040519081016040528093929190818152602001838380828437820191505050505050836000826040516020018082805190602001908083835b602083101515611e515780518252602082019150602081019050602083039250611e2c565b6001836020036101000a0380198251168184511680821785525050505050509050019150506040516020818303038152906040526040518082805190602001908083835b602083101515611eba5780518252602082019150602081019050602083039250611e95565b6001836020036101000a03801982511681845116808217855250505050505090500191505060405180910390209050600060016000836000191660001916815260200190815260200160002083815481101515611f1357fe5b906000526020600020906006020160020154111515611fc0576040517f08c379a00000000000000000000000000000000000000000000000000000000081526004018080602001828103825260288152602001807f4c6963656e736520666f722074686520637573746f6d657220646f6573206e6f81526020017f742065786973747300000000000000000000000000000000000000000000000081525060400191505060405180910390fd5b8787604051602001808383808284378201915050925050506040516020818303038152906040526040518082805190602001908083835b60208310151561201c5780518252602082019150602081019050602083039250611ff7565b6001836020036101000a038019825116818451168082178552505050505050905001915050604051809103902094506001600086600019166000191681526020019081526020016000208681548110151561207357fe5b906000526020600020906006020193506001600381111561209057fe5b8460010160019054906101000a900460ff1660038111156120ad57fe5b141515612122576040517f08c379a000000000000000000000000000000000000000000000000000000000815260040180806020018281038252601f8152602001807f4f6e6c792065787069726564206c6963656e73652063616e20626520656e640081525060200191505060405180910390fd5b60028460010160016101000a81548160ff0219169083600381111561214357fe5b0217905550857fd8b75cca6059fd557f51425727468cd3b320a2f377dcb4b12e051d7fcda346da8989604051808060200182810382528484828181526020019250808284378201915050935050505060405180910390a25050505050505050565b6000809054906101000a900473ffffffffffffffffffffffffffffffffffffffff1673ffffffffffffffffffffffffffffffffffffffff163373ffffffffffffffffffffffffffffffffffffffff161415156121ff57600080fd5b6122088161220b565b50565b600073ffffffffffffffffffffffffffffffffffffffff168173ffffffffffffffffffffffffffffffffffffffff161415151561224757600080fd5b8073ffffffffffffffffffffffffffffffffffffffff166000809054906101000a900473ffffffffffffffffffffffffffffffffffffffff1673ffffffffffffffffffffffffffffffffffffffff167f8be0079c531659141344cd1fd0a4f28419497f9722a3daafe3b4186f6b6457e060405160405180910390a3806000806101000a81548173ffffffffffffffffffffffffffffffffffffffff021916908373ffffffffffffffffffffffffffffffffffffffff16021790555050565b828054600181600116156101000203166002900490600052602060002090601f016020900481019282601f1061234657805160ff1916838001178555612374565b82800160010185558215612374579182015b82811115612373578251825591602001919060010190612358565b5b5090506123819190612385565b5090565b6123a791905b808211156123a357600081600090555060010161238b565b5090565b905600a165627a7a723058209f6e241df6b3980c0896b1b98f71c21505d675d12054a49b331b1792781bc4f20029",
  "source": "pragma solidity 0.4.24;\n\nimport \"openzeppelin-solidity/contracts/ownership/Ownable.sol\";\n\ncontract LicenseManager is Ownable {\n\n    enum Type {STANDARD, EXTENDED, EDITORIAL, RIGHTS_MANAGED}\n\n    enum Status {ACTIVE, EXPIRED, ENDED, TERMINATED}\n\n    struct License {\n        string customerId;\n        Type licenseType;\n        Status status;\n        uint256 createdDate;\n        uint256 renewedDate;\n        uint256 expiringDate;\n        uint256 skuCode;\n    }\n\n    mapping(bytes32=>License[]) customerIdVsLicense;\n\n    event LicenseAdded(\n        string customerId, \n        uint256 indexed skuCode, \n        uint256 licenseId\n    );\n\n    event LicenseRenewed(\n        string customerId, \n        uint256 indexed licenseId, \n        uint256 expiringDate\n    );\n\n    event LicenseExpired(string customerId, uint256 indexed licenseId);\n\n    event LicenseEnded(string customerId, uint256 indexed licenseId);\n\n    event LicenseTerminated(string customerId, uint256 indexed licenseId);\n\n    modifier licenseExists(string customerId, uint256 licenseId){\n    \n        bytes32 hashedCustomerId = keccak256(abi.encodePacked(customerId));\n        \n        require(\n            customerIdVsLicense[hashedCustomerId][licenseId].createdDate > 0,\n            \"License for the customer does not exists\"\n        );\n\n        _;\n        \n    }\n\n    function newLicense(\n        string customerId,\n        Type licenseType,\n        uint256 expiringDate,\n        uint256 skuCode\n    )\n        external\n        onlyOwner\n        returns (uint256 id)\n    {\n        require(\n            bytes(customerId).length > 0, \n            \"Please provide valid customerId\"\n        );\n\n        require(expiringDate > now, \"Please provide valid expiring date\");\n\n        bytes32 hashedCustomerId = keccak256(abi.encodePacked(customerId));\n\n        id = customerIdVsLicense[hashedCustomerId].length;\n\n        customerIdVsLicense[hashedCustomerId].push(License({\n            customerId:customerId,\n            licenseType:licenseType,\n            status:Status.ACTIVE,\n            createdDate:now,\n            renewedDate:now,\n            expiringDate:expiringDate,\n            skuCode:skuCode\n        }));\n\n        emit LicenseAdded(customerId, skuCode, id);\n    }\n\n\n    function renewLicense(\n        string customerId, \n        uint256 licenseId, \n        uint256 expiringDate\n    )\n        external \n        onlyOwner \n        licenseExists(customerId, licenseId)\n    {\n        bytes32 hashedCustomerId = keccak256(abi.encodePacked(customerId));\n        License storage license = customerIdVsLicense[\n            hashedCustomerId\n            ][\n                licenseId\n            ];\n        require(\n            expiringDate > license.expiringDate, \n            \"New expiring date should be greater then current expiring date for the license\"\n        );\n        require(\n            license.status != Status.ENDED || license.status != Status.TERMINATED\n        );\n\n        license.expiringDate = expiringDate;\n        license.status = Status.ACTIVE;\n        license.renewedDate = now;\n\n        emit LicenseRenewed(customerId, licenseId, expiringDate);\n\n    }\n\n    function checkAndMarkExpire(\n        string customerId, \n        uint256 licenseId\n    )\n        external \n        onlyOwner \n        licenseExists(customerId, licenseId)\n        returns (bool expired)\n    {   \n        expired = false;\n        bytes32 hashedCustomerId = keccak256(abi.encodePacked(customerId));\n        License storage license = customerIdVsLicense[\n            hashedCustomerId\n            ][\n                licenseId\n            ];\n\n        require(license.status == Status.ACTIVE, \"License is not active\");\n\n        if(license.expiringDate < now){\n            license.status = Status.EXPIRED;\n            expired = true;\n            emit LicenseExpired(customerId, licenseId);\n        }\n    }\n\n    function endLicense(\n        string customerId, \n        uint256 licenseId\n    )\n        external \n        onlyOwner \n        licenseExists(customerId, licenseId) \n    {\n        bytes32 hashedCustomerId = keccak256(abi.encodePacked(customerId));\n        License storage license = customerIdVsLicense[\n            hashedCustomerId\n            ][\n                licenseId\n            ];\n        \n        require(\n            license.status == Status.EXPIRED, \n            \"Only expired license can be end\"\n        );\n        \n        license.status = Status.ENDED;\n\n        emit LicenseEnded(customerId, licenseId);\n    }\n\n    function terminateLicense(\n        string customerId, \n        uint256 licenseId\n    )\n        external \n        onlyOwner \n        licenseExists(customerId, licenseId) \n    {\n        bytes32 hashedCustomerId = keccak256(abi.encodePacked(customerId));\n        License storage license = customerIdVsLicense[\n            hashedCustomerId\n        ][\n            licenseId\n        ];\n        \n        require(\n            license.status == Status.ENDED || license.status == Status.TERMINATED, \n            \"License already ended or terminated\"\n        );\n\n        license.status = Status.TERMINATED;\n\n        emit LicenseTerminated(customerId, licenseId);\n    }\n\n    function getLicenseStatus(\n        string customerId, \n        uint256 licenseId\n    )\n        external \n        licenseExists(customerId, licenseId) \n        returns(Status status) \n    {\n        bytes32 hashedCustomerId = keccak256(abi.encodePacked(customerId));\n\n        status = customerIdVsLicense[hashedCustomerId][licenseId].status;\n\n    }\n\n    function getLicense(\n        string customerId, \n        uint256 licenseId\n    )\n        external \n        licenseExists(customerId, licenseId) \n        returns (\n            Type licenseType,\n            Status status,\n            uint256 createdDate,\n            uint256 renewedDate,\n            uint256 expiringDate,\n            uint256 skuCode   \n        )\n    {\n        bytes32 hashedCustomerId = keccak256(abi.encodePacked(customerId));\n        License storage license = customerIdVsLicense[\n            hashedCustomerId\n            ][\n                licenseId\n            ];\n\n        licenseType = license.licenseType;\n        status = license.status;\n        createdDate = license.createdDate;\n        renewedDate = license.renewedDate;\n        expiringDate = license.expiringDate;\n        skuCode = license.skuCode;\n    }\n\n    function checkLicenseExists(\n        string customerId, \n        uint256 licenseId\n    )\n        external \n        returns (bool exists)\n    {\n        bytes32 hashedCustomerId = keccak256(abi.encodePacked(customerId));\n\n        exists = customerIdVsLicense[\n            hashedCustomerId\n        ][\n            licenseId\n        ].createdDate > 0;\n    }\n\n}",
  "sourcePath": "/home/sameep/freelancing-projects/picnspan/contracts/License.sol",
  "compiler": {
    "name": "solc",
    "version": "0.4.24+commit.e67f0147.Emscripten.clang"
  },
  "schemaVersion": "2.0.1",
  "updatedAt": "2018-10-20T16:22:47.821Z"
}