{
  "contractName": "SubscriptionManager",
  "abi": [
    {
      "constant": false,
      "inputs": [],
      "name": "renounceOwnership",
      "outputs": [],
      "payable": false,
      "stateMutability": "nonpayable",
      "type": "function"
    },
    {
      "constant": true,
      "inputs": [],
      "name": "owner",
      "outputs": [
        {
          "name": "",
          "type": "address"
        }
      ],
      "payable": false,
      "stateMutability": "view",
      "type": "function"
    },
    {
      "constant": false,
      "inputs": [
        {
          "name": "_newOwner",
          "type": "address"
        }
      ],
      "name": "transferOwnership",
      "outputs": [],
      "payable": false,
      "stateMutability": "nonpayable",
      "type": "function"
    },
    {
      "anonymous": false,
      "inputs": [
        {
          "indexed": false,
          "name": "customerId",
          "type": "string"
        },
        {
          "indexed": false,
          "name": "subscriptionId",
          "type": "uint256"
        }
      ],
      "name": "SubscriptionAdded",
      "type": "event"
    },
    {
      "anonymous": false,
      "inputs": [
        {
          "indexed": false,
          "name": "customerId",
          "type": "string"
        },
        {
          "indexed": true,
          "name": "subscriptionId",
          "type": "uint256"
        }
      ],
      "name": "SubscriptionRenewed",
      "type": "event"
    },
    {
      "anonymous": false,
      "inputs": [
        {
          "indexed": true,
          "name": "previousOwner",
          "type": "address"
        }
      ],
      "name": "OwnershipRenounced",
      "type": "event"
    },
    {
      "anonymous": false,
      "inputs": [
        {
          "indexed": true,
          "name": "previousOwner",
          "type": "address"
        },
        {
          "indexed": true,
          "name": "newOwner",
          "type": "address"
        }
      ],
      "name": "OwnershipTransferred",
      "type": "event"
    },
    {
      "constant": false,
      "inputs": [
        {
          "name": "customerId",
          "type": "string"
        },
        {
          "name": "subscriptionType",
          "type": "uint8"
        },
        {
          "name": "expiringDate",
          "type": "uint256"
        },
        {
          "name": "credits",
          "type": "uint256"
        }
      ],
      "name": "newSubscription",
      "outputs": [
        {
          "name": "id",
          "type": "uint256"
        }
      ],
      "payable": false,
      "stateMutability": "nonpayable",
      "type": "function"
    },
    {
      "constant": false,
      "inputs": [
        {
          "name": "customerId",
          "type": "string"
        },
        {
          "name": "subscriptionId",
          "type": "uint256"
        },
        {
          "name": "credits",
          "type": "uint256"
        },
        {
          "name": "expiringDate",
          "type": "uint256"
        }
      ],
      "name": "renewSubscription",
      "outputs": [],
      "payable": false,
      "stateMutability": "nonpayable",
      "type": "function"
    }
  ],
  "bytecode": "0x6080604052336000806101000a81548173ffffffffffffffffffffffffffffffffffffffff021916908373ffffffffffffffffffffffffffffffffffffffff160217905550610e67806100536000396000f30060806040526004361061006d576000357c0100000000000000000000000000000000000000000000000000000000900463ffffffff168063715018a6146100725780637bffd494146100895780638303cf5f146100f95780638da5cb5b14610152578063f2fde38b146101a9575b600080fd5b34801561007e57600080fd5b506100876101ec565b005b34801561009557600080fd5b506100e3600480360381019080803590602001908201803590602001919091929391929390803560ff16906020019092919080359060200190929190803590602001909291905050506102ee565b6040518082815260200191505060405180910390f35b34801561010557600080fd5b50610150600480360381019080803590602001908201803590602001919091929391929390803590602001909291908035906020019092919080359060200190929190505050610748565b005b34801561015e57600080fd5b50610167610bf4565b604051808273ffffffffffffffffffffffffffffffffffffffff1673ffffffffffffffffffffffffffffffffffffffff16815260200191505060405180910390f35b3480156101b557600080fd5b506101ea600480360381019080803573ffffffffffffffffffffffffffffffffffffffff169060200190929190505050610c19565b005b6000809054906101000a900473ffffffffffffffffffffffffffffffffffffffff1673ffffffffffffffffffffffffffffffffffffffff163373ffffffffffffffffffffffffffffffffffffffff1614151561024757600080fd5b6000809054906101000a900473ffffffffffffffffffffffffffffffffffffffff1673ffffffffffffffffffffffffffffffffffffffff167ff8df31144d9c2f0f6b59d69b8b98abd5459d07f2742c4df920b25aae33c6482060405160405180910390a260008060006101000a81548173ffffffffffffffffffffffffffffffffffffffff021916908373ffffffffffffffffffffffffffffffffffffffff160217905550565b6000806000809054906101000a900473ffffffffffffffffffffffffffffffffffffffff1673ffffffffffffffffffffffffffffffffffffffff163373ffffffffffffffffffffffffffffffffffffffff1614151561034c57600080fd5b6000878790501115156103c7576040517f08c379a000000000000000000000000000000000000000000000000000000000815260040180806020018281038252601f8152602001807f506c656173652070726f766964652076616c696420637573746f6d657249640081525060200191505060405180910390fd5b4284111515610464576040517f08c379a00000000000000000000000000000000000000000000000000000000081526004018080602001828103825260228152602001807f506c656173652070726f766964652076616c6964206578706972696e6720646181526020017f746500000000000000000000000000000000000000000000000000000000000081525060400191505060405180910390fd5b6000831115156104dc576040517f08c379a000000000000000000000000000000000000000000000000000000000815260040180806020018281038252601e8152602001807f43726564697473206d7573742062652067726561746572207468616e2030000081525060200191505060405180910390fd5b8686604051602001808383808284378201915050925050506040516020818303038152906040526040518082805190602001908083835b6020831015156105385780518252602082019150602081019050602083039250610513565b6001836020036101000a0380198251168184511680821785525050505050509050019150506040518091039020905060016000826000191660001916815260200190815260200160002080549050915060016000826000191660001916815260200190815260200160002060e06040519081016040528089898080601f01602080910402602001604051908101604052809392919081815260200183838082843782019150505050505081526020018760038111156105f357fe5b81526020016000600381111561060557fe5b815260200142815260200142815260200186815260200185815250908060018154018082558091505090600182039060005260206000209060060201600090919290919091506000820151816000019080519060200190610667929190610d96565b5060208201518160010160006101000a81548160ff0219169083600381111561068c57fe5b021790555060408201518160010160016101000a81548160ff021916908360038111156106b557fe5b0217905550606082015181600201556080820151816003015560a0820151816004015560c082015181600501555050507fd76f1e576990bc89350c347d0bafd263b14a6757865d6d5f998a1379bee1c11087878460405180806020018381526020018281038252858582818152602001925080828437820191505094505050505060405180910390a15095945050505050565b6000806000809054906101000a900473ffffffffffffffffffffffffffffffffffffffff1673ffffffffffffffffffffffffffffffffffffffff163373ffffffffffffffffffffffffffffffffffffffff161415156107a657600080fd5b86868080601f016020809104026020016040519081016040528093929190818152602001838380828437820191505050505050856000826040516020018082805190602001908083835b60208310151561081557805182526020820191506020810190506020830392506107f0565b6001836020036101000a0380198251168184511680821785525050505050509050019150506040516020818303038152906040526040518082805190602001908083835b60208310151561087e5780518252602082019150602081019050602083039250610859565b6001836020036101000a038019825116818451168082178552505050505050905001915050604051809103902090506000600160008360001916600019168152602001908152602001600020838154811015156108d757fe5b906000526020600020906006020160020154111515610984576040517f08c379a000000000000000000000000000000000000000000000000000000000815260040180806020018281038252602d8152602001807f537562736372697074696f6e20666f722074686520637573746f6d657220646f81526020017f6573206e6f74206578697374730000000000000000000000000000000000000081525060400191505060405180910390fd5b8989604051602001808383808284378201915050925050506040516020818303038152906040526040518082805190602001908083835b6020831015156109e057805182526020820191506020810190506020830392506109bb565b6001836020036101000a0380198251168184511680821785525050505050509050019150506040518091039020945060016000866000191660001916815260200190815260200160002088815481101515610a3757fe5b906000526020600020906006020193508360040154861180610a595750600087115b1515610acd576040517f08c379a000000000000000000000000000000000000000000000000000000000815260040180806020018281038252600f8152602001807f496e76616c69642072657175657374000000000000000000000000000000000081525060200191505060405180910390fd5b60026003811115610ada57fe5b8460010160019054906101000a900460ff166003811115610af757fe5b141580610b2b5750600380811115610b0b57fe5b8460010160019054906101000a900460ff166003811115610b2857fe5b14155b1515610b3657600080fd5b42861115610b48578584600401819055505b60008460010160016101000a81548160ff02191690836003811115610b6957fe5b0217905550428460030181905550610b8e878560050154610c8090919063ffffffff16565b8460050181905550877fcc9e19874d53c41f8216f7e91e30050960d0ba50b558f7df714f7a4dcf6ebcff8b8b604051808060200182810382528484828181526020019250808284378201915050935050505060405180910390a250505050505050505050565b6000809054906101000a900473ffffffffffffffffffffffffffffffffffffffff1681565b6000809054906101000a900473ffffffffffffffffffffffffffffffffffffffff1673ffffffffffffffffffffffffffffffffffffffff163373ffffffffffffffffffffffffffffffffffffffff16141515610c7457600080fd5b610c7d81610c9c565b50565b60008183019050828110151515610c9357fe5b80905092915050565b600073ffffffffffffffffffffffffffffffffffffffff168173ffffffffffffffffffffffffffffffffffffffff1614151515610cd857600080fd5b8073ffffffffffffffffffffffffffffffffffffffff166000809054906101000a900473ffffffffffffffffffffffffffffffffffffffff1673ffffffffffffffffffffffffffffffffffffffff167f8be0079c531659141344cd1fd0a4f28419497f9722a3daafe3b4186f6b6457e060405160405180910390a3806000806101000a81548173ffffffffffffffffffffffffffffffffffffffff021916908373ffffffffffffffffffffffffffffffffffffffff16021790555050565b828054600181600116156101000203166002900490600052602060002090601f016020900481019282601f10610dd757805160ff1916838001178555610e05565b82800160010185558215610e05579182015b82811115610e04578251825591602001919060010190610de9565b5b509050610e129190610e16565b5090565b610e3891905b80821115610e34576000816000905550600101610e1c565b5090565b905600a165627a7a72305820bd93ab59f7890e2a37fee453401be435e0a3aa9cc8a738134cc7428eda9ca21a0029",
  "source": "pragma solidity 0.4.24;\n\nimport \"openzeppelin-solidity/contracts/ownership/Ownable.sol\";\nimport \"openzeppelin-solidity/contracts/math/SafeMath.sol\";\n\ncontract SubscriptionManager is Ownable {\n    using SafeMath for uint256;\n\n    enum Type {STANDARD, EXTENDED, EDITORIAL, RIGHTS_MANAGED}\n\n    enum Status {ACTIVE, EXPIRED, ENDED, TERMINATED}\n\n    struct  Subscription {\n        string customerId;\n        Type subscriptionType;\n        Status status;\n        uint256 createdDate;\n        uint256 renewedDate;\n        uint256 expiringDate;\n        uint256 credits;\n    }\n\n    mapping(bytes32=>Subscription[]) customerIdVsSubscription;\n\n    event SubscriptionAdded(\n        string customerId,  \n        uint256 subscriptionId\n    );\n    event SubscriptionRenewed(\n        string customerId, \n        uint256 indexed subscriptionId\n    );\n\n    modifier subscriptionExists(string customerId, uint256 subscriptionId){\n    \n        bytes32 hashedCustomerId = keccak256(abi.encodePacked(customerId));\n        \n        require(\n            customerIdVsSubscription[hashedCustomerId][subscriptionId].createdDate > 0,\n            \"Subscription for the customer does not exists\"\n        );\n\n        _;\n        \n    }\n    function newSubscription(\n        string customerId,\n        Type subscriptionType,\n        uint256 expiringDate,\n        uint256 credits\n    )\n        external\n        onlyOwner\n        returns (uint256 id)\n    {\n        require(\n            bytes(customerId).length > 0, \n            \"Please provide valid customerId\"\n        );\n\n        require(expiringDate > now, \"Please provide valid expiring date\");\n\n        require(credits > 0, \"Credits must be greater than 0\");\n\n        bytes32 hashedCustomerId = keccak256(abi.encodePacked(customerId));\n\n        id = customerIdVsSubscription[hashedCustomerId].length;\n\n        customerIdVsSubscription[hashedCustomerId].push(Subscription({\n            customerId:customerId,\n            subscriptionType:subscriptionType,\n            status:Status.ACTIVE,\n            createdDate:now,\n            renewedDate:now,\n            expiringDate:expiringDate,\n            credits:credits\n        }));\n\n        emit SubscriptionAdded(customerId, id);\n    }\n\n    function renewSubscription(\n        string customerId, \n        uint256 subscriptionId, \n        uint256 credits,\n        uint256 expiringDate\n    )\n        external \n        onlyOwner \n        subscriptionExists(customerId, subscriptionId)\n    {\n        bytes32 hashedCustomerId = keccak256(abi.encodePacked(customerId));\n        Subscription storage subscription = customerIdVsSubscription[\n            hashedCustomerId\n            ][\n                subscriptionId\n            ];\n        require(\n            expiringDate > subscription.expiringDate || credits>0, \n            \"Invalid request\"\n        );\n        require(\n            subscription.status != Status.ENDED || subscription.status != Status.TERMINATED\n        );\n        if(expiringDate > now){\n            subscription.expiringDate = expiringDate;\n        }\n        \n        subscription.status = Status.ACTIVE;\n        subscription.renewedDate = now;\n        subscription.credits = subscription.credits.add(credits);\n\n        emit SubscriptionRenewed(customerId, subscriptionId);\n\n    }\n}",
  "sourcePath": "/home/sameep/freelancing-projects/picnspan/contracts/SubscriptionManager.sol",
  "compiler": {
    "name": "solc",
    "version": "0.4.24+commit.e67f0147.Emscripten.clang"
  },
  "schemaVersion": "2.0.1",
  "updatedAt": "2018-10-20T16:43:38.282Z"
}